{
  "contractName": "Auction",
  "abi": [
    {
      "inputs": [],
      "payable": false,
      "stateMutability": "nonpayable",
      "type": "constructor"
    },
    {
      "anonymous": false,
      "inputs": [
        {
          "indexed": false,
          "internalType": "uint256",
          "name": "_itemId",
          "type": "uint256"
        },
        {
          "indexed": true,
          "internalType": "uint256",
          "name": "_bidAmt",
          "type": "uint256"
        }
      ],
      "name": "BidEvent",
      "type": "event"
    },
    {
      "constant": true,
      "inputs": [
        {
          "internalType": "uint256",
          "name": "",
          "type": "uint256"
        }
      ],
      "name": "arrayForItems",
      "outputs": [
        {
          "internalType": "uint256",
          "name": "",
          "type": "uint256"
        }
      ],
      "payable": false,
      "stateMutability": "view",
      "type": "function"
    },
    {
      "constant": true,
      "inputs": [
        {
          "internalType": "uint256",
          "name": "",
          "type": "uint256"
        }
      ],
      "name": "highestBidders",
      "outputs": [
        {
          "internalType": "address",
          "name": "",
          "type": "address"
        }
      ],
      "payable": false,
      "stateMutability": "view",
      "type": "function"
    },
    {
      "constant": true,
      "inputs": [],
      "name": "itemId",
      "outputs": [
        {
          "internalType": "uint256",
          "name": "",
          "type": "uint256"
        }
      ],
      "payable": false,
      "stateMutability": "view",
      "type": "function"
    },
    {
      "constant": true,
      "inputs": [
        {
          "internalType": "uint256",
          "name": "",
          "type": "uint256"
        }
      ],
      "name": "items",
      "outputs": [
        {
          "internalType": "string",
          "name": "item_name",
          "type": "string"
        },
        {
          "internalType": "string",
          "name": "item_desc",
          "type": "string"
        },
        {
          "internalType": "uint256",
          "name": "base_price",
          "type": "uint256"
        },
        {
          "internalType": "uint256",
          "name": "min_increment",
          "type": "uint256"
        },
        {
          "internalType": "uint256",
          "name": "auction_price",
          "type": "uint256"
        }
      ],
      "payable": false,
      "stateMutability": "view",
      "type": "function"
    },
    {
      "constant": true,
      "inputs": [],
      "name": "getItemCount",
      "outputs": [
        {
          "internalType": "uint256",
          "name": "",
          "type": "uint256"
        }
      ],
      "payable": false,
      "stateMutability": "pure",
      "type": "function"
    },
    {
      "constant": true,
      "inputs": [
        {
          "internalType": "uint256",
          "name": "_itemId",
          "type": "uint256"
        }
      ],
      "name": "getItemName",
      "outputs": [
        {
          "internalType": "string",
          "name": "",
          "type": "string"
        }
      ],
      "payable": false,
      "stateMutability": "view",
      "type": "function"
    },
    {
      "constant": true,
      "inputs": [
        {
          "internalType": "uint256",
          "name": "_itemId",
          "type": "uint256"
        }
      ],
      "name": "getItemPrice",
      "outputs": [
        {
          "internalType": "uint256",
          "name": "",
          "type": "uint256"
        }
      ],
      "payable": false,
      "stateMutability": "view",
      "type": "function"
    },
    {
      "constant": true,
      "inputs": [
        {
          "internalType": "uint256",
          "name": "_itemId",
          "type": "uint256"
        }
      ],
      "name": "getItemIncrement",
      "outputs": [
        {
          "internalType": "uint256",
          "name": "",
          "type": "uint256"
        }
      ],
      "payable": false,
      "stateMutability": "view",
      "type": "function"
    },
    {
      "constant": true,
      "inputs": [
        {
          "internalType": "uint256",
          "name": "_itemId",
          "type": "uint256"
        }
      ],
      "name": "getPercentIncrease",
      "outputs": [
        {
          "internalType": "uint256",
          "name": "",
          "type": "uint256"
        }
      ],
      "payable": false,
      "stateMutability": "view",
      "type": "function"
    },
    {
      "constant": true,
      "inputs": [
        {
          "internalType": "uint256",
          "name": "num",
          "type": "uint256"
        }
      ],
      "name": "getArrayOfNumericalInformation",
      "outputs": [
        {
          "internalType": "uint256[4]",
          "name": "",
          "type": "uint256[4]"
        }
      ],
      "payable": false,
      "stateMutability": "view",
      "type": "function"
    },
    {
      "constant": true,
      "inputs": [],
      "name": "getArrayOfPrices",
      "outputs": [
        {
          "internalType": "uint256[4]",
          "name": "",
          "type": "uint256[4]"
        }
      ],
      "payable": false,
      "stateMutability": "view",
      "type": "function"
    },
    {
      "constant": true,
      "inputs": [],
      "name": "getArrayOfIncreases",
      "outputs": [
        {
          "internalType": "uint256[4]",
          "name": "",
          "type": "uint256[4]"
        }
      ],
      "payable": false,
      "stateMutability": "view",
      "type": "function"
    },
    {
      "constant": true,
      "inputs": [],
      "name": "getArrayOfIncrements",
      "outputs": [
        {
          "internalType": "uint256[4]",
          "name": "",
          "type": "uint256[4]"
        }
      ],
      "payable": false,
      "stateMutability": "view",
      "type": "function"
    },
    {
      "constant": true,
      "inputs": [],
      "name": "getHighestBidders",
      "outputs": [
        {
          "internalType": "address[4]",
          "name": "",
          "type": "address[4]"
        }
      ],
      "payable": false,
      "stateMutability": "view",
      "type": "function"
    },
    {
      "constant": false,
      "inputs": [
        {
          "internalType": "uint256",
          "name": "_itemId",
          "type": "uint256"
        },
        {
          "internalType": "uint256",
          "name": "_bidAmt",
          "type": "uint256"
        }
      ],
      "name": "placeBid",
      "outputs": [
        {
          "internalType": "uint256",
          "name": "",
          "type": "uint256"
        }
      ],
      "payable": false,
      "stateMutability": "nonpayable",
      "type": "function"
    },
    {
      "constant": true,
      "inputs": [
        {
          "internalType": "uint256",
          "name": "_itemId",
          "type": "uint256"
        },
        {
          "internalType": "uint256",
          "name": "_bidAmt",
          "type": "uint256"
        }
      ],
      "name": "check_bid",
      "outputs": [
        {
          "internalType": "bool",
          "name": "",
          "type": "bool"
        }
      ],
      "payable": false,
      "stateMutability": "view",
      "type": "function"
    },
    {
      "constant": true,
      "inputs": [
        {
          "internalType": "uint256",
          "name": "_itemId",
          "type": "uint256"
        },
        {
          "internalType": "uint256",
          "name": "_bidAmt",
          "type": "uint256"
        }
      ],
      "name": "check_increment",
      "outputs": [
        {
          "internalType": "bool",
          "name": "",
          "type": "bool"
        }
      ],
      "payable": false,
      "stateMutability": "view",
      "type": "function"
    },
    {
      "constant": true,
      "inputs": [
        {
          "internalType": "uint256",
          "name": "_itemId",
          "type": "uint256"
        },
        {
          "internalType": "address",
          "name": "person_wallet",
          "type": "address"
        }
      ],
      "name": "check_highest_bidder",
      "outputs": [
        {
          "internalType": "bool",
          "name": "",
          "type": "bool"
        }
      ],
      "payable": false,
      "stateMutability": "view",
      "type": "function"
    }
  ],
  "bytecode": "0x608060405260006004553480156200001657600080fd5b506200007d6040518060400160405280600481526020017f56617365000000000000000000000000000000000000000000000000000000008152506040518060600160405280603f815260200162001926603f9139601460026014620001b760201b60201c565b620000e36040518060400160405280600981526020017f4d6f6e61204c6973610000000000000000000000000000000000000000000000815250604051806080016040528060498152602001620018976049913960c8601460c8620001b760201b60201c565b620001496040518060400160405280600c81526020017f537461727279204e6967687400000000000000000000000000000000000000008152506040518060800160405280604481526020016200196560449139609660236096620001b760201b60201c565b620001b16040518060400160405280601a81526020017f4c696265727479204c656164696e67207468652050656f706c65000000000000815250604051806080016040528060468152602001620018e0604691396103e860646103e8620001b760201b60201c565b6200036f565b6040518060a0016040528086815260200185815260200184815260200183815260200182815250600560006004548152602001908152602001600020600082015181600001908051906020019062000211929190620002c0565b50602082015181600101908051906020019062000230929190620002c0565b50604082015181600201556060820151816003015560808201518160040155905050600060066000600454815260200190815260200160002060006101000a81548173ffffffffffffffffffffffffffffffffffffffff021916908373ffffffffffffffffffffffffffffffffffffffff1602179055506004600081548092919060010191905055505050505050565b828054600181600116156101000203166002900490600052602060002090601f016020900481019282601f106200030357805160ff191683800117855562000334565b8280016001018555821562000334579182015b828111156200033357825182559160200191906001019062000316565b5b50905062000343919062000347565b5090565b6200036c91905b80821115620003685760008160009055506001016200034e565b5090565b90565b611518806200037f6000396000f3fe608060405234801561001057600080fd5b50600436106101165760003560e01c806377484aae116100a2578063bfb231d211610071578063bfb231d2146104ff578063ca6158cb14610627578063d945db0b14610645578063d9561a9114610687578063eebcd7311461072e57610116565b806377484aae146103dd5780637749cf231461044b578063a14acf0014610469578063acad0763146104b957610116565b806349a027f6116100e957806349a027f6146102615780634c4df870146102c757806357c90de5146103095780635d45a7a1146103555780635d8d55c91461039757610116565b806319cb45e61461011b5780631c6076bb146101615780631e9c6386146101b15780632206aa7f146101f7575b600080fd5b610123610770565b6040518082600460200280838360005b8381101561014e578082015181840152602081019050610133565b5050505090500191505060405180910390f35b6101976004803603604081101561017757600080fd5b810190808035906020019092919080359060200190929190505050610810565b604051808215151515815260200191505060405180910390f35b6101b9610844565b6040518082600460200280838360005b838110156101e45780820151818401526020810190506101c9565b5050505090500191505060405180910390f35b6102236004803603602081101561020d57600080fd5b81019080803590602001909291905050506108ef565b6040518082600460200280838360005b8381101561024e578082015181840152602081019050610233565b5050505090500191505060405180910390f35b6102ad6004803603604081101561027757600080fd5b8101908080359060200190929190803573ffffffffffffffffffffffffffffffffffffffff169060200190929190505050610b30565b604051808215151515815260200191505060405180910390f35b6102f3600480360360208110156102dd57600080fd5b8101908080359060200190929190505050610bad565b6040518082815260200191505060405180910390f35b61033f6004803603604081101561031f57600080fd5b810190808035906020019092919080359060200190929190505050610c4f565b6040518082815260200191505060405180910390f35b6103816004803603602081101561036b57600080fd5b8101908080359060200190929190505050610e9e565b6040518082815260200191505060405180910390f35b61039f610f40565b6040518082600460200280838360005b838110156103ca5780820151818401526020810190506103af565b5050505090500191505060405180910390f35b610409600480360360208110156103f357600080fd5b8101908080359060200190929190505050610fe0565b604051808273ffffffffffffffffffffffffffffffffffffffff1673ffffffffffffffffffffffffffffffffffffffff16815260200191505060405180910390f35b610453611013565b6040518082815260200191505060405180910390f35b61049f6004803603604081101561047f57600080fd5b81019080803590602001909291908035906020019092919050505061101c565b604051808215151515815260200191505060405180910390f35b6104c161106d565b6040518082600460200280838360005b838110156104ec5780820151818401526020810190506104d1565b5050505090500191505060405180910390f35b61052b6004803603602081101561051557600080fd5b810190808035906020019092919050505061110d565b604051808060200180602001868152602001858152602001848152602001838103835288818151815260200191508051906020019080838360005b83811015610581578082015181840152602081019050610566565b50505050905090810190601f1680156105ae5780820380516001836020036101000a031916815260200191505b50838103825287818151815260200191508051906020019080838360005b838110156105e75780820151818401526020810190506105cc565b50505050905090810190601f1680156106145780820380516001836020036101000a031916815260200191505b5097505050505050505060405180910390f35b61062f611273565b6040518082815260200191505060405180910390f35b6106716004803603602081101561065b57600080fd5b8101908080359060200190929190505050611279565b6040518082815260200191505060405180910390f35b6106b36004803603602081101561069d57600080fd5b8101908080359060200190929190505050611291565b6040518080602001828103825283818151815260200191508051906020019080838360005b838110156106f35780820151818401526020810190506106d8565b50505050905090810190601f1680156107205780820380516001836020036101000a031916815260200191505b509250505060405180910390f35b61075a6004803603602081101561074457600080fd5b81019080803590602001909291905050506113cc565b6040518082815260200191505060405180910390f35b610778611421565b3073ffffffffffffffffffffffffffffffffffffffff16632206aa7f60036040518263ffffffff1660e01b81526004018082815260200191505060806040518083038186803b1580156107ca57600080fd5b505afa1580156107de573d6000803e3d6000fd5b505050506040513d601f19601f82011682018060405250608081101561080357600080fd5b8101908091905050905090565b60006005600084815260200190815260200160002060040154821115610839576001905061083e565b600090505b92915050565b61084c611443565b610854611443565b60008090505b60048110156108e7576006600082815260200190815260200160002060009054906101000a900473ffffffffffffffffffffffffffffffffffffffff168282600481106108a357fe5b602002019073ffffffffffffffffffffffffffffffffffffffff16908173ffffffffffffffffffffffffffffffffffffffff1681525050808060010191505061085a565b508091505090565b6108f7611421565b6108ff611421565b60008090505b6004811015610b265760018414156109bd573073ffffffffffffffffffffffffffffffffffffffff16634c4df870826040518263ffffffff1660e01b81526004018082815260200191505060206040518083038186803b15801561096857600080fd5b505afa15801561097c573d6000803e3d6000fd5b505050506040513d602081101561099257600080fd5b81019080805190602001909291905050508282600481106109af57fe5b602002018181525050610b19565b6002841415610a6c573073ffffffffffffffffffffffffffffffffffffffff1663eebcd731826040518263ffffffff1660e01b81526004018082815260200191505060206040518083038186803b158015610a1757600080fd5b505afa158015610a2b573d6000803e3d6000fd5b505050506040513d6020811015610a4157600080fd5b8101908080519060200190929190505050828260048110610a5e57fe5b602002018181525050610b18565b6003841415610b17573073ffffffffffffffffffffffffffffffffffffffff16635d45a7a1826040518263ffffffff1660e01b81526004018082815260200191505060206040518083038186803b158015610ac657600080fd5b505afa158015610ada573d6000803e3d6000fd5b505050506040513d6020811015610af057600080fd5b8101908080519060200190929190505050828260048110610b0d57fe5b6020020181815250505b5b5b8080600101915050610905565b5080915050919050565b60006006600084815260200190815260200160002060009054906101000a900473ffffffffffffffffffffffffffffffffffffffff1673ffffffffffffffffffffffffffffffffffffffff168273ffffffffffffffffffffffffffffffffffffffff161415610ba25760009050610ba7565b600190505b92915050565b6000808210158015610bbf5750600482105b610c31576040517f08c379a00000000000000000000000000000000000000000000000000000000081526004018080602001828103825260138152602001807f4974656d20646f6573206e6f742065786973740000000000000000000000000081525060200191505060405180910390fd5b60056000838152602001908152602001600020600401549050919050565b6000808310158015610c615750600483105b610cd3576040517f08c379a000000000000000000000000000000000000000000000000000000000815260040180806020018281038252601a8152602001807f42696464696e67206f6e20616e20696e76616c6964206974656d00000000000081525060200191505060405180910390fd5b610cdd8383610810565b610d32576040517f08c379a000000000000000000000000000000000000000000000000000000000815260040180806020018281038252602e8152602001806114b6602e913960400191505060405180910390fd5b610d3c838361101c565b610d91576040517f08c379a000000000000000000000000000000000000000000000000000000000815260040180806020018281038252602c815260200180611466602c913960400191505060405180910390fd5b610d9b8333610b30565b610df0576040517f08c379a00000000000000000000000000000000000000000000000000000000081526004018080602001828103825260248152602001806114926024913960400191505060405180910390fd5b816005600085815260200190815260200160002060040181905550336006600085815260200190815260200160002060006101000a81548173ffffffffffffffffffffffffffffffffffffffff021916908373ffffffffffffffffffffffffffffffffffffffff160217905550817f7b0140573d213f42228ee5bf51487a8b9a9e85e0f8d61506811f7af74afcddc8846040518082815260200191505060405180910390a282905092915050565b6000808210158015610eb05750600482105b610f22576040517f08c379a00000000000000000000000000000000000000000000000000000000081526004018080602001828103825260138152602001807f4974656d20646f6573206e6f742065786973740000000000000000000000000081525060200191505060405180910390fd5b60056000838152602001908152602001600020600301549050919050565b610f48611421565b3073ffffffffffffffffffffffffffffffffffffffff16632206aa7f60016040518263ffffffff1660e01b81526004018082815260200191505060806040518083038186803b158015610f9a57600080fd5b505afa158015610fae573d6000803e3d6000fd5b505050506040513d601f19601f820116820180604052506080811015610fd357600080fd5b8101908091905050905090565b60066020528060005260406000206000915054906101000a900473ffffffffffffffffffffffffffffffffffffffff1681565b60006004905090565b60008060056000858152602001908152602001600020600401548303905060056000858152602001908152602001600020600301548110611061576001915050611067565b60009150505b92915050565b611075611421565b3073ffffffffffffffffffffffffffffffffffffffff16632206aa7f60026040518263ffffffff1660e01b81526004018082815260200191505060806040518083038186803b1580156110c757600080fd5b505afa1580156110db573d6000803e3d6000fd5b505050506040513d601f19601f82011682018060405250608081101561110057600080fd5b8101908091905050905090565b6005602052806000526040600020600091509050806000018054600181600116156101000203166002900480601f0160208091040260200160405190810160405280929190818152602001828054600181600116156101000203166002900480156111b95780601f1061118e576101008083540402835291602001916111b9565b820191906000526020600020905b81548152906001019060200180831161119c57829003601f168201915b505050505090806001018054600181600116156101000203166002900480601f0160208091040260200160405190810160405280929190818152602001828054600181600116156101000203166002900480156112575780601f1061122c57610100808354040283529160200191611257565b820191906000526020600020905b81548152906001019060200180831161123a57829003601f168201915b5050505050908060020154908060030154908060040154905085565b60045481565b6000816004811061128657fe5b016000915090505481565b6060600082101580156112a45750600482105b611316576040517f08c379a00000000000000000000000000000000000000000000000000000000081526004018080602001828103825260138152602001807f4974656d20646f6573206e6f742065786973740000000000000000000000000081525060200191505060405180910390fd5b600560008381526020019081526020016000206000018054600181600116156101000203166002900480601f0160208091040260200160405190810160405280929190818152602001828054600181600116156101000203166002900480156113c05780601f10611395576101008083540402835291602001916113c0565b820191906000526020600020905b8154815290600101906020018083116113a357829003601f168201915b50505050509050919050565b600080600560008481526020019081526020016000206004015490506000600560008581526020019081526020016000206002015490506000816064838503028161141357fe5b049050809350505050919050565b6040518060800160405280600490602082028038833980820191505090505090565b604051806080016040528060049060208202803883398082019150509050509056fe426964206973206e6f7420656e6f756768206261736564206f6e206d696e696d756d20696e6372656d656e74506572736f6e2062696464696e6720697320746865206869676865737420626964646572426964206973206c6f776572206f7220657175616c20746f207468652068696768657374206269642076616c7565a265627a7a723158206785cc73f3c2c19a0e4affb31641611f64c47e506bf5aee34924cd03070475f064736f6c6343000510003246616d6f7573207061696e74696e6720627920746865204974616c69616e206172746973742c204c656f6e6172646f2064612056696e63692e204a7573742062656175746966756c2144656c6163726f6978207061696e74696e6720636f6d6d656d6f726174696e6720746865204a756c79205265766f6c7574696f6e206f66203138333020696e204672616e6365313874682043656e74757279206c6f7374206d61737465727069656365207769746820626c75652d616e642d776869746520666c6f72616c2064657369676e412056616e20476f676820636c617373696320646570696374696e6720612062656175746966756c20737461727279206e69676874207573696e672070617374656c732e",
  "source": "pragma solidity ^0.5.0;\n\ncontract Auction {\n\n   \n\tstruct Item{\t\t\t\n\t\tstring item_name; // name\n\t\tstring item_desc; // description\n\t\tuint base_price; // start price\n\t\tuint min_increment; // minimum increment for a bid\n\t\tuint auction_price;  // current price of item\n\t}\n\t\n\n\tuint constant itemCount = 4;\n    uint[itemCount] public arrayForItems;\n\tuint public itemId = 0;\n\t\n\n    mapping(uint => Item) public items; // item hash table\n\tmapping(uint => address) public highestBidders; // highest bidders hash table\n\n\n\tevent BidEvent(uint _itemId, uint indexed _bidAmt);\n\n\n\tconstructor() public {\t\n\t\taddItem(\"Vase\", \"18th Century lost masterpiece with blue-and-white floral design\", 20, 2, 20);\n\t\taddItem(\"Mona Lisa\", \"Famous painting by the Italian artist, Leonardo da Vinci. Just beautiful!\", 200, 20, 200);\n\t\taddItem(\"Starry Night\", \"A Van Gogh classic depicting a beautiful starry night using pastels.\", 150, 35, 150);\n\t\taddItem(\"Liberty Leading the People\", \"Delacroix painting commemorating the July Revolution of 1830 in France\", 1000, 100, 1000);\n\t}\n\t\n\n\tfunction addItem (string memory _name, string memory _desc, uint _baseValue, uint _increment, uint _startPrice) private { \t\n\t\titems[itemId] = Item(_name, _desc, _baseValue, _increment,_startPrice);\n\t\thighestBidders[itemId] = address(0);\n\t\titemId ++;\n\t}\n\n\n\tfunction getItemCount () public pure returns (uint) {\n\t\treturn itemCount;\n\t}\n\t\n\n\tfunction getItemName (uint _itemId) public view returns (string memory) {\n\t\trequire(_itemId >= 0 && _itemId < itemCount, \"Item does not exist\"); // the item id must be greater than 0 but less or equal to the total count\n\n\t\treturn items[_itemId].item_name;\n\t}\n\n\n\tfunction getItemPrice (uint _itemId) public view returns (uint) {\n\t\trequire(_itemId >= 0 && _itemId < itemCount, \"Item does not exist\"); // the item id must be greater than 0 but less or equal to the total count\n\n\t\treturn items[_itemId].auction_price;\n\t}\n\t\n\n\tfunction getItemIncrement (uint _itemId) public view returns (uint) {\n\t\trequire(_itemId >= 0 && _itemId < itemCount, \"Item does not exist\"); // the item id must be greater than 0 but less or equal to the total count\n\n\t\treturn items[_itemId].min_increment;\n\t}\n\t\n\n\tfunction getPercentIncrease (uint _itemId) public view returns (uint) {\n\t\tuint auctionPrice = items[_itemId].auction_price;\n\t\tuint basePrice = items[_itemId].base_price;\n\t\tuint percentIncrease = (auctionPrice - basePrice)*100/basePrice;\n\n\t\treturn percentIncrease;\n\t}\n\t\n\n\tfunction getArrayOfNumericalInformation (uint num) public view returns (uint[itemCount] memory) {\n\t\tuint[itemCount] memory arrayOfNumbers;\n\n\t\tfor (uint i=0;i < itemCount; i++) {\n\t\t\tif (num == 1) {\n\t\t\t\tarrayOfNumbers[i] = this.getItemPrice(i);\n\t\t\t} else if (num == 2) {\n\t\t\t\tarrayOfNumbers[i] = this.getPercentIncrease(i);\n\t\t\t} else if (num == 3) {\n\t\t\t\tarrayOfNumbers[i] = this.getItemIncrement(i);\n\t\t\t}\n\t\t}\n\n\t\treturn arrayOfNumbers;\n\t}\n\t\n\n\tfunction getArrayOfPrices () public view returns (uint[itemCount] memory) {\n\t\treturn this.getArrayOfNumericalInformation(1);\n\t}\n\n\n\tfunction getArrayOfIncreases () public view returns (uint[itemCount] memory) {\n\t\treturn this.getArrayOfNumericalInformation(2);\n\t}\n\n\n\tfunction getArrayOfIncrements () public view returns (uint[itemCount] memory) {\n\t\treturn this.getArrayOfNumericalInformation(3);\n\t}\n\n\n\tfunction getHighestBidders () public view returns (address[itemCount] memory) {\n\t\taddress[itemCount] memory arrayOfBidders;\n\n\t\tfor (uint i=0;i < itemCount; i++) {\n\t\t\tarrayOfBidders[i] = highestBidders[i];\n\t\t}\n\n\t\treturn arrayOfBidders;\n\n\t}\n\t\n\t\n    // Function to place a bid\n    function placeBid (uint _itemId, uint _bidAmt) public returns (uint) {\n        // Requirements \n\t\trequire(_itemId >= 0 && _itemId < itemCount, \"Bidding on an invalid item\"); // the item id must be greater than 0 but less than the total count\n\t\t\n\t\trequire(check_bid (_itemId, _bidAmt),\"Bid is lower or equal to the highest bid value\"); // the bid should be higher or equal to the current\n\t\t\n\t\trequire(check_increment (_itemId, _bidAmt),\"Bid is not enough based on minimum increment\"); // make sure that the increment is greater than or equal to the minimum increment for the auction item\n\n\t\trequire(check_highest_bidder(_itemId, msg.sender), \"Person bidding is the highest bidder\"); // make sure that person bidding isn't already highest bidder\n\n        items[_itemId].auction_price = _bidAmt; // replace the current price with the new bid amount\n\t\thighestBidders[_itemId] = msg.sender; // replace the highest bidder for that item id with the new highest bidder\n\n\t\temit BidEvent(_itemId, _bidAmt); // logs the bid event on ethereum EVM\n\n        return _itemId; // return the item back \t\n\n    }\n\n\n    // Function to check if the bid is greater than highest bid\n\tfunction check_bid (uint _itemId, uint _bidAmt) public view returns (bool) {\n\t\tif (_bidAmt > items[_itemId].auction_price) return true;\n\t\telse return false;\n\t}\n\t\n\t\n    // Function to check if the difference is greater to minimum increment value\n\tfunction check_increment (uint _itemId, uint _bidAmt) public view returns (bool) {\n\t\tuint diff;\n\n\t\tdiff = _bidAmt - items[_itemId].auction_price;\n\t\tif (diff >= items[_itemId].min_increment) return true;\n\t\telse return false;\n\t}\n\t\n\n\t// Function to check if person bidding is the highest bidder\n\tfunction check_highest_bidder (uint _itemId, address person_wallet) public view returns (bool) {\n\t\tif (person_wallet == highestBidders[_itemId]) {\n\t\t\treturn false;\n\t\t} else {\n\t\t\treturn true;\n\t\t}\n\t}\n\n}\n",
  "sourcePath": "/home/paarthsachan/DApp/starter_kit/src/contracts/Auction.sol",
  "compiler": {
    "name": "solc",
    "version": "0.5.16+commit.9c3226ce.Emscripten.clang"
  },
  "schemaVersion": "3.4.1",
  "updatedAt": "2021-07-03T14:10:53.126Z",
  "networkType": "ethereum",
  "devdoc": {
    "methods": {}
  },
  "userdoc": {
    "methods": {}
  }
}