{
  "contractName": "Bruh",
  "abi": [
    {
      "inputs": [],
      "payable": false,
      "stateMutability": "nonpayable",
      "type": "constructor"
    },
    {
      "anonymous": false,
      "inputs": [
        {
          "indexed": false,
          "internalType": "uint256",
          "name": "_itemId",
          "type": "uint256"
        },
        {
          "indexed": true,
          "internalType": "uint256",
          "name": "_bidAmt",
          "type": "uint256"
        }
      ],
      "name": "BidEvent",
      "type": "event"
    },
    {
      "constant": true,
      "inputs": [
        {
          "internalType": "uint256",
          "name": "",
          "type": "uint256"
        }
      ],
      "name": "arrayForItems",
      "outputs": [
        {
          "internalType": "uint256",
          "name": "",
          "type": "uint256"
        }
      ],
      "payable": false,
      "stateMutability": "view",
      "type": "function"
    },
    {
      "constant": true,
      "inputs": [
        {
          "internalType": "uint256",
          "name": "",
          "type": "uint256"
        }
      ],
      "name": "highestBidders",
      "outputs": [
        {
          "internalType": "address",
          "name": "",
          "type": "address"
        }
      ],
      "payable": false,
      "stateMutability": "view",
      "type": "function"
    },
    {
      "constant": true,
      "inputs": [],
      "name": "itemCount",
      "outputs": [
        {
          "internalType": "uint256",
          "name": "",
          "type": "uint256"
        }
      ],
      "payable": false,
      "stateMutability": "view",
      "type": "function"
    },
    {
      "constant": true,
      "inputs": [],
      "name": "itemId",
      "outputs": [
        {
          "internalType": "uint256",
          "name": "",
          "type": "uint256"
        }
      ],
      "payable": false,
      "stateMutability": "view",
      "type": "function"
    },
    {
      "constant": true,
      "inputs": [
        {
          "internalType": "uint256",
          "name": "",
          "type": "uint256"
        }
      ],
      "name": "items",
      "outputs": [
        {
          "internalType": "string",
          "name": "item_name",
          "type": "string"
        },
        {
          "internalType": "string",
          "name": "item_desc",
          "type": "string"
        },
        {
          "internalType": "uint256",
          "name": "base_price",
          "type": "uint256"
        },
        {
          "internalType": "uint256",
          "name": "min_increment",
          "type": "uint256"
        },
        {
          "internalType": "uint256",
          "name": "auction_price",
          "type": "uint256"
        }
      ],
      "payable": false,
      "stateMutability": "view",
      "type": "function"
    },
    {
      "constant": true,
      "inputs": [],
      "name": "name",
      "outputs": [
        {
          "internalType": "string",
          "name": "",
          "type": "string"
        }
      ],
      "payable": false,
      "stateMutability": "view",
      "type": "function"
    },
    {
      "constant": true,
      "inputs": [],
      "name": "getItemCount",
      "outputs": [
        {
          "internalType": "uint256",
          "name": "",
          "type": "uint256"
        }
      ],
      "payable": false,
      "stateMutability": "pure",
      "type": "function"
    },
    {
      "constant": true,
      "inputs": [
        {
          "internalType": "uint256",
          "name": "_itemId",
          "type": "uint256"
        }
      ],
      "name": "getItemName",
      "outputs": [
        {
          "internalType": "string",
          "name": "",
          "type": "string"
        }
      ],
      "payable": false,
      "stateMutability": "view",
      "type": "function"
    },
    {
      "constant": true,
      "inputs": [
        {
          "internalType": "uint256",
          "name": "_itemId",
          "type": "uint256"
        }
      ],
      "name": "getItemPrice",
      "outputs": [
        {
          "internalType": "uint256",
          "name": "",
          "type": "uint256"
        }
      ],
      "payable": false,
      "stateMutability": "view",
      "type": "function"
    },
    {
      "constant": true,
      "inputs": [
        {
          "internalType": "uint256",
          "name": "_itemId",
          "type": "uint256"
        }
      ],
      "name": "getItemIncrement",
      "outputs": [
        {
          "internalType": "uint256",
          "name": "",
          "type": "uint256"
        }
      ],
      "payable": false,
      "stateMutability": "view",
      "type": "function"
    },
    {
      "constant": true,
      "inputs": [
        {
          "internalType": "uint256",
          "name": "_itemId",
          "type": "uint256"
        }
      ],
      "name": "getPercentIncrease",
      "outputs": [
        {
          "internalType": "uint256",
          "name": "",
          "type": "uint256"
        }
      ],
      "payable": false,
      "stateMutability": "view",
      "type": "function"
    },
    {
      "constant": true,
      "inputs": [
        {
          "internalType": "uint256",
          "name": "num",
          "type": "uint256"
        }
      ],
      "name": "getArrayOfNumericalInformation",
      "outputs": [
        {
          "internalType": "uint256[4]",
          "name": "",
          "type": "uint256[4]"
        }
      ],
      "payable": false,
      "stateMutability": "view",
      "type": "function"
    },
    {
      "constant": true,
      "inputs": [],
      "name": "getArrayOfPrices",
      "outputs": [
        {
          "internalType": "uint256[4]",
          "name": "",
          "type": "uint256[4]"
        }
      ],
      "payable": false,
      "stateMutability": "view",
      "type": "function"
    },
    {
      "constant": true,
      "inputs": [],
      "name": "getArrayOfIncreases",
      "outputs": [
        {
          "internalType": "uint256[4]",
          "name": "",
          "type": "uint256[4]"
        }
      ],
      "payable": false,
      "stateMutability": "view",
      "type": "function"
    },
    {
      "constant": true,
      "inputs": [],
      "name": "getArrayOfIncrements",
      "outputs": [
        {
          "internalType": "uint256[4]",
          "name": "",
          "type": "uint256[4]"
        }
      ],
      "payable": false,
      "stateMutability": "view",
      "type": "function"
    },
    {
      "constant": true,
      "inputs": [],
      "name": "getHighestBidders",
      "outputs": [
        {
          "internalType": "address[4]",
          "name": "",
          "type": "address[4]"
        }
      ],
      "payable": false,
      "stateMutability": "view",
      "type": "function"
    },
    {
      "constant": false,
      "inputs": [
        {
          "internalType": "uint256",
          "name": "_itemId",
          "type": "uint256"
        },
        {
          "internalType": "uint256",
          "name": "_bidAmt",
          "type": "uint256"
        }
      ],
      "name": "placeBid",
      "outputs": [
        {
          "internalType": "uint256",
          "name": "",
          "type": "uint256"
        }
      ],
      "payable": false,
      "stateMutability": "nonpayable",
      "type": "function"
    },
    {
      "constant": true,
      "inputs": [
        {
          "internalType": "uint256",
          "name": "_itemId",
          "type": "uint256"
        },
        {
          "internalType": "uint256",
          "name": "_bidAmt",
          "type": "uint256"
        }
      ],
      "name": "check_bid",
      "outputs": [
        {
          "internalType": "bool",
          "name": "",
          "type": "bool"
        }
      ],
      "payable": false,
      "stateMutability": "view",
      "type": "function"
    },
    {
      "constant": true,
      "inputs": [
        {
          "internalType": "uint256",
          "name": "_itemId",
          "type": "uint256"
        },
        {
          "internalType": "uint256",
          "name": "_bidAmt",
          "type": "uint256"
        }
      ],
      "name": "check_increment",
      "outputs": [
        {
          "internalType": "bool",
          "name": "",
          "type": "bool"
        }
      ],
      "payable": false,
      "stateMutability": "view",
      "type": "function"
    },
    {
      "constant": true,
      "inputs": [
        {
          "internalType": "uint256",
          "name": "_itemId",
          "type": "uint256"
        },
        {
          "internalType": "address",
          "name": "person_wallet",
          "type": "address"
        }
      ],
      "name": "check_highest_bidder",
      "outputs": [
        {
          "internalType": "bool",
          "name": "",
          "type": "bool"
        }
      ],
      "payable": false,
      "stateMutability": "view",
      "type": "function"
    }
  ],
  "bytecode": "0x60806040526040518060400160405280600781526020017f41756374696f6e0000000000000000000000000000000000000000000000000081525060009080519060200190620000519291906200030e565b5060006005553480156200006457600080fd5b50620000cb6040518060400160405280600481526020017f56617365000000000000000000000000000000000000000000000000000000008152506040518060600160405280603f815260200162001b55603f91396014600260146200020560201b60201c565b620001316040518060400160405280600981526020017f4d6f6e61204c697361000000000000000000000000000000000000000000000081525060405180608001604052806049815260200162001ac66049913960c8601460c86200020560201b60201c565b620001976040518060400160405280600c81526020017f537461727279204e69676874000000000000000000000000000000000000000081525060405180608001604052806044815260200162001b94604491396096602360966200020560201b60201c565b620001ff6040518060400160405280601a81526020017f4c696265727479204c656164696e67207468652050656f706c6500000000000081525060405180608001604052806046815260200162001b0f604691396103e860646103e86200020560201b60201c565b62000444565b6040518060a001604052808681526020018581526020018481526020018381526020018281525060066000600554815260200190815260200160002060008201518160000190805190602001906200025f92919062000395565b5060208201518160010190805190602001906200027e92919062000395565b50604082015181600201556060820151816003015560808201518160040155905050600060076000600554815260200190815260200160002060006101000a81548173ffffffffffffffffffffffffffffffffffffffff021916908373ffffffffffffffffffffffffffffffffffffffff1602179055506005600081548092919060010191905055505050505050565b828054600181600116156101000203166002900490600052602060002090601f016020900481019282601f106200035157805160ff191683800117855562000382565b8280016001018555821562000382579182015b828111156200038157825182559160200191906001019062000364565b5b5090506200039191906200041c565b5090565b828054600181600116156101000203166002900490600052602060002090601f016020900481019282601f10620003d857805160ff191683800117855562000409565b8280016001018555821562000409579182015b8281111562000408578251825591602001919060010190620003eb565b5b5090506200041891906200041c565b5090565b6200044191905b808211156200043d57600081600090555060010162000423565b5090565b90565b61167280620004546000396000f3fe608060405234801561001057600080fd5b506004361061012c5760003560e01c80636bfb0d01116100ad578063bfb231d211610071578063bfb231d2146105b6578063ca6158cb146106de578063d945db0b146106fc578063d9561a911461073e578063eebcd731146107e55761012c565b80636bfb0d011461047657806377484aae146104945780637749cf2314610502578063a14acf0014610520578063acad0763146105705761012c565b806349a027f6116100f457806349a027f6146102fa5780634c4df8701461036057806357c90de5146103a25780635d45a7a1146103ee5780635d8d55c9146104305761012c565b806306fdde031461013157806319cb45e6146101b45780631c6076bb146101fa5780631e9c63861461024a5780632206aa7f14610290575b600080fd5b610139610827565b6040518080602001828103825283818151815260200191508051906020019080838360005b8381101561017957808201518184015260208101905061015e565b50505050905090810190601f1680156101a65780820380516001836020036101000a031916815260200191505b509250505060405180910390f35b6101bc6108c5565b6040518082600460200280838360005b838110156101e75780820151818401526020810190506101cc565b5050505090500191505060405180910390f35b6102306004803603604081101561021057600080fd5b810190808035906020019092919080359060200190929190505050610965565b604051808215151515815260200191505060405180910390f35b610252610999565b6040518082600460200280838360005b8381101561027d578082015181840152602081019050610262565b5050505090500191505060405180910390f35b6102bc600480360360208110156102a657600080fd5b8101908080359060200190929190505050610a44565b6040518082600460200280838360005b838110156102e75780820151818401526020810190506102cc565b5050505090500191505060405180910390f35b6103466004803603604081101561031057600080fd5b8101908080359060200190929190803573ffffffffffffffffffffffffffffffffffffffff169060200190929190505050610c85565b604051808215151515815260200191505060405180910390f35b61038c6004803603602081101561037657600080fd5b8101908080359060200190929190505050610d02565b6040518082815260200191505060405180910390f35b6103d8600480360360408110156103b857600080fd5b810190808035906020019092919080359060200190929190505050610da4565b6040518082815260200191505060405180910390f35b61041a6004803603602081101561040457600080fd5b8101908080359060200190929190505050610ff3565b6040518082815260200191505060405180910390f35b610438611095565b6040518082600460200280838360005b83811015610463578082015181840152602081019050610448565b5050505090500191505060405180910390f35b61047e611135565b6040518082815260200191505060405180910390f35b6104c0600480360360208110156104aa57600080fd5b810190808035906020019092919050505061113a565b604051808273ffffffffffffffffffffffffffffffffffffffff1673ffffffffffffffffffffffffffffffffffffffff16815260200191505060405180910390f35b61050a61116d565b6040518082815260200191505060405180910390f35b6105566004803603604081101561053657600080fd5b810190808035906020019092919080359060200190929190505050611176565b604051808215151515815260200191505060405180910390f35b6105786111c7565b6040518082600460200280838360005b838110156105a3578082015181840152602081019050610588565b5050505090500191505060405180910390f35b6105e2600480360360208110156105cc57600080fd5b8101908080359060200190929190505050611267565b604051808060200180602001868152602001858152602001848152602001838103835288818151815260200191508051906020019080838360005b8381101561063857808201518184015260208101905061061d565b50505050905090810190601f1680156106655780820380516001836020036101000a031916815260200191505b50838103825287818151815260200191508051906020019080838360005b8381101561069e578082015181840152602081019050610683565b50505050905090810190601f1680156106cb5780820380516001836020036101000a031916815260200191505b5097505050505050505060405180910390f35b6106e66113cd565b6040518082815260200191505060405180910390f35b6107286004803603602081101561071257600080fd5b81019080803590602001909291905050506113d3565b6040518082815260200191505060405180910390f35b61076a6004803603602081101561075457600080fd5b81019080803590602001909291905050506113eb565b6040518080602001828103825283818151815260200191508051906020019080838360005b838110156107aa57808201518184015260208101905061078f565b50505050905090810190601f1680156107d75780820380516001836020036101000a031916815260200191505b509250505060405180910390f35b610811600480360360208110156107fb57600080fd5b8101908080359060200190929190505050611526565b6040518082815260200191505060405180910390f35b60008054600181600116156101000203166002900480601f0160208091040260200160405190810160405280929190818152602001828054600181600116156101000203166002900480156108bd5780601f10610892576101008083540402835291602001916108bd565b820191906000526020600020905b8154815290600101906020018083116108a057829003601f168201915b505050505081565b6108cd61157b565b3073ffffffffffffffffffffffffffffffffffffffff16632206aa7f60036040518263ffffffff1660e01b81526004018082815260200191505060806040518083038186803b15801561091f57600080fd5b505afa158015610933573d6000803e3d6000fd5b505050506040513d601f19601f82011682018060405250608081101561095857600080fd5b8101908091905050905090565b6000600660008481526020019081526020016000206004015482111561098e5760019050610993565b600090505b92915050565b6109a161159d565b6109a961159d565b60008090505b6004811015610a3c576007600082815260200190815260200160002060009054906101000a900473ffffffffffffffffffffffffffffffffffffffff168282600481106109f857fe5b602002019073ffffffffffffffffffffffffffffffffffffffff16908173ffffffffffffffffffffffffffffffffffffffff168152505080806001019150506109af565b508091505090565b610a4c61157b565b610a5461157b565b60008090505b6004811015610c7b576001841415610b12573073ffffffffffffffffffffffffffffffffffffffff16634c4df870826040518263ffffffff1660e01b81526004018082815260200191505060206040518083038186803b158015610abd57600080fd5b505afa158015610ad1573d6000803e3d6000fd5b505050506040513d6020811015610ae757600080fd5b8101908080519060200190929190505050828260048110610b0457fe5b602002018181525050610c6e565b6002841415610bc1573073ffffffffffffffffffffffffffffffffffffffff1663eebcd731826040518263ffffffff1660e01b81526004018082815260200191505060206040518083038186803b158015610b6c57600080fd5b505afa158015610b80573d6000803e3d6000fd5b505050506040513d6020811015610b9657600080fd5b8101908080519060200190929190505050828260048110610bb357fe5b602002018181525050610c6d565b6003841415610c6c573073ffffffffffffffffffffffffffffffffffffffff16635d45a7a1826040518263ffffffff1660e01b81526004018082815260200191505060206040518083038186803b158015610c1b57600080fd5b505afa158015610c2f573d6000803e3d6000fd5b505050506040513d6020811015610c4557600080fd5b8101908080519060200190929190505050828260048110610c6257fe5b6020020181815250505b5b5b8080600101915050610a5a565b5080915050919050565b60006007600084815260200190815260200160002060009054906101000a900473ffffffffffffffffffffffffffffffffffffffff1673ffffffffffffffffffffffffffffffffffffffff168273ffffffffffffffffffffffffffffffffffffffff161415610cf75760009050610cfc565b600190505b92915050565b6000808210158015610d145750600482105b610d86576040517f08c379a00000000000000000000000000000000000000000000000000000000081526004018080602001828103825260138152602001807f4974656d20646f6573206e6f742065786973740000000000000000000000000081525060200191505060405180910390fd5b60066000838152602001908152602001600020600401549050919050565b6000808310158015610db65750600483105b610e28576040517f08c379a000000000000000000000000000000000000000000000000000000000815260040180806020018281038252601a8152602001807f42696464696e67206f6e20616e20696e76616c6964206974656d00000000000081525060200191505060405180910390fd5b610e328383610965565b610e87576040517f08c379a000000000000000000000000000000000000000000000000000000000815260040180806020018281038252602e815260200180611610602e913960400191505060405180910390fd5b610e918383611176565b610ee6576040517f08c379a000000000000000000000000000000000000000000000000000000000815260040180806020018281038252602c8152602001806115c0602c913960400191505060405180910390fd5b610ef08333610c85565b610f45576040517f08c379a00000000000000000000000000000000000000000000000000000000081526004018080602001828103825260248152602001806115ec6024913960400191505060405180910390fd5b816006600085815260200190815260200160002060040181905550336007600085815260200190815260200160002060006101000a81548173ffffffffffffffffffffffffffffffffffffffff021916908373ffffffffffffffffffffffffffffffffffffffff160217905550817f7b0140573d213f42228ee5bf51487a8b9a9e85e0f8d61506811f7af74afcddc8846040518082815260200191505060405180910390a282905092915050565b60008082101580156110055750600482105b611077576040517f08c379a00000000000000000000000000000000000000000000000000000000081526004018080602001828103825260138152602001807f4974656d20646f6573206e6f742065786973740000000000000000000000000081525060200191505060405180910390fd5b60066000838152602001908152602001600020600301549050919050565b61109d61157b565b3073ffffffffffffffffffffffffffffffffffffffff16632206aa7f60016040518263ffffffff1660e01b81526004018082815260200191505060806040518083038186803b1580156110ef57600080fd5b505afa158015611103573d6000803e3d6000fd5b505050506040513d601f19601f82011682018060405250608081101561112857600080fd5b8101908091905050905090565b600481565b60076020528060005260406000206000915054906101000a900473ffffffffffffffffffffffffffffffffffffffff1681565b60006004905090565b600080600660008581526020019081526020016000206004015483039050600660008581526020019081526020016000206003015481106111bb5760019150506111c1565b60009150505b92915050565b6111cf61157b565b3073ffffffffffffffffffffffffffffffffffffffff16632206aa7f60026040518263ffffffff1660e01b81526004018082815260200191505060806040518083038186803b15801561122157600080fd5b505afa158015611235573d6000803e3d6000fd5b505050506040513d601f19601f82011682018060405250608081101561125a57600080fd5b8101908091905050905090565b6006602052806000526040600020600091509050806000018054600181600116156101000203166002900480601f0160208091040260200160405190810160405280929190818152602001828054600181600116156101000203166002900480156113135780601f106112e857610100808354040283529160200191611313565b820191906000526020600020905b8154815290600101906020018083116112f657829003601f168201915b505050505090806001018054600181600116156101000203166002900480601f0160208091040260200160405190810160405280929190818152602001828054600181600116156101000203166002900480156113b15780601f10611386576101008083540402835291602001916113b1565b820191906000526020600020905b81548152906001019060200180831161139457829003601f168201915b5050505050908060020154908060030154908060040154905085565b60055481565b600181600481106113e057fe5b016000915090505481565b6060600082101580156113fe5750600482105b611470576040517f08c379a00000000000000000000000000000000000000000000000000000000081526004018080602001828103825260138152602001807f4974656d20646f6573206e6f742065786973740000000000000000000000000081525060200191505060405180910390fd5b600660008381526020019081526020016000206000018054600181600116156101000203166002900480601f01602080910402602001604051908101604052809291908181526020018280546001816001161561010002031660029004801561151a5780601f106114ef5761010080835404028352916020019161151a565b820191906000526020600020905b8154815290600101906020018083116114fd57829003601f168201915b50505050509050919050565b600080600660008481526020019081526020016000206004015490506000600660008581526020019081526020016000206002015490506000816064838503028161156d57fe5b049050809350505050919050565b6040518060800160405280600490602082028038833980820191505090505090565b604051806080016040528060049060208202803883398082019150509050509056fe426964206973206e6f7420656e6f756768206261736564206f6e206d696e696d756d20696e6372656d656e74506572736f6e2062696464696e6720697320746865206869676865737420626964646572426964206973206c6f776572206f7220657175616c20746f207468652068696768657374206269642076616c7565a265627a7a7231582039da1a47cb28ffc627abfd696ef3babdfddfaee856b7203ada89d0622e56f43864736f6c6343000510003246616d6f7573207061696e74696e6720627920746865204974616c69616e206172746973742c204c656f6e6172646f2064612056696e63692e204a7573742062656175746966756c2144656c6163726f6978207061696e74696e6720636f6d6d656d6f726174696e6720746865204a756c79205265766f6c7574696f6e206f66203138333020696e204672616e6365313874682043656e74757279206c6f7374206d61737465727069656365207769746820626c75652d616e642d776869746520666c6f72616c2064657369676e412056616e20476f676820636c617373696320646570696374696e6720612062656175746966756c20737461727279206e69676874207573696e672070617374656c732e",
  "source": "pragma solidity ^0.5.0;\n\ncontract Bruh {\n\n   \n\tstruct Item{\t\t\t\n\t\tstring item_name; // name\n\t\tstring item_desc; // description\n\t\tuint base_price; // start price\n\t\tuint min_increment; // minimum increment for a bid\n\t\tuint auction_price;  // current price of item\n\t}\n\t\n\tstring public name=\"Auction\";\n\tuint constant  public itemCount = 4;\n    uint[itemCount] public arrayForItems;\n\tuint public itemId = 0;\n\t\n\n    mapping(uint => Item) public items; // item hash table\n\tmapping(uint => address) public highestBidders; // highest bidders hash table\n\n\n\tevent BidEvent(uint _itemId, uint indexed _bidAmt);\n\n\n\tconstructor() public {\t\n\t\taddItem(\"Vase\", \"18th Century lost masterpiece with blue-and-white floral design\", 20, 2, 20);\n\t\taddItem(\"Mona Lisa\", \"Famous painting by the Italian artist, Leonardo da Vinci. Just beautiful!\", 200, 20, 200);\n\t\taddItem(\"Starry Night\", \"A Van Gogh classic depicting a beautiful starry night using pastels.\", 150, 35, 150);\n\t\taddItem(\"Liberty Leading the People\", \"Delacroix painting commemorating the July Revolution of 1830 in France\", 1000, 100, 1000);\n\t}\n\t\n\n\tfunction addItem (string memory _name, string memory _desc, uint _baseValue, uint _increment, uint _startPrice) private { \t\n\t\titems[itemId] = Item(_name, _desc, _baseValue, _increment,_startPrice);\n\t\thighestBidders[itemId] = address(0);\n\t\titemId ++;\n\t}\n\n\n\tfunction getItemCount () public pure returns (uint) {\n\t\treturn itemCount;\n\t}\n\t\n\n\tfunction getItemName (uint _itemId) public view returns (string memory) {\n\t\trequire(_itemId >= 0 && _itemId < itemCount, \"Item does not exist\"); // the item id must be greater than 0 but less or equal to the total count\n\n\t\treturn items[_itemId].item_name;\n\t}\n\n\n\tfunction getItemPrice (uint _itemId) public view returns (uint) {\n\t\trequire(_itemId >= 0 && _itemId < itemCount, \"Item does not exist\"); // the item id must be greater than 0 but less or equal to the total count\n\n\t\treturn items[_itemId].auction_price;\n\t}\n\t\n\n\tfunction getItemIncrement (uint _itemId) public view returns (uint) {\n\t\trequire(_itemId >= 0 && _itemId < itemCount, \"Item does not exist\"); // the item id must be greater than 0 but less or equal to the total count\n\n\t\treturn items[_itemId].min_increment;\n\t}\n\t\n\n\tfunction getPercentIncrease (uint _itemId) public view returns (uint) {\n\t\tuint auctionPrice = items[_itemId].auction_price;\n\t\tuint basePrice = items[_itemId].base_price;\n\t\tuint percentIncrease = (auctionPrice - basePrice)*100/basePrice;\n\n\t\treturn percentIncrease;\n\t}\n\t\n\n\tfunction getArrayOfNumericalInformation (uint num) public view returns (uint[itemCount] memory) {\n\t\tuint[itemCount] memory arrayOfNumbers;\n\n\t\tfor (uint i=0;i < itemCount; i++) {\n\t\t\tif (num == 1) {\n\t\t\t\tarrayOfNumbers[i] = this.getItemPrice(i);\n\t\t\t} else if (num == 2) {\n\t\t\t\tarrayOfNumbers[i] = this.getPercentIncrease(i);\n\t\t\t} else if (num == 3) {\n\t\t\t\tarrayOfNumbers[i] = this.getItemIncrement(i);\n\t\t\t}\n\t\t}\n\n\t\treturn arrayOfNumbers;\n\t}\n\t\n\n\tfunction getArrayOfPrices () public view returns (uint[itemCount] memory) {\n\t\treturn this.getArrayOfNumericalInformation(1);\n\t}\n\n\n\tfunction getArrayOfIncreases () public view returns (uint[itemCount] memory) {\n\t\treturn this.getArrayOfNumericalInformation(2);\n\t}\n\n\n\tfunction getArrayOfIncrements () public view returns (uint[itemCount] memory) {\n\t\treturn this.getArrayOfNumericalInformation(3);\n\t}\n\n\n\tfunction getHighestBidders () public view returns (address[itemCount] memory) {\n\t\taddress[itemCount] memory arrayOfBidders;\n\n\t\tfor (uint i=0;i < itemCount; i++) {\n\t\t\tarrayOfBidders[i] = highestBidders[i];\n\t\t}\n\n\t\treturn arrayOfBidders;\n\n\t}\n\t\n\t\n    // Function to place a bid\n    function placeBid (uint _itemId, uint _bidAmt) public returns (uint) {\n        // Requirements \n\t\trequire(_itemId >= 0 && _itemId < itemCount, \"Bidding on an invalid item\"); // the item id must be greater than 0 but less than the total count\n\t\t\n\t\trequire(check_bid (_itemId, _bidAmt),\"Bid is lower or equal to the highest bid value\"); // the bid should be higher or equal to the current\n\t\t\n\t\trequire(check_increment (_itemId, _bidAmt),\"Bid is not enough based on minimum increment\"); // make sure that the increment is greater than or equal to the minimum increment for the auction item\n\n\t\trequire(check_highest_bidder(_itemId, msg.sender), \"Person bidding is the highest bidder\"); // make sure that person bidding isn't already highest bidder\n\n        items[_itemId].auction_price = _bidAmt; // replace the current price with the new bid amount\n\t\thighestBidders[_itemId] = msg.sender; // replace the highest bidder for that item id with the new highest bidder\n\n\t\temit BidEvent(_itemId, _bidAmt); // logs the bid event on ethereum EVM\n\n        return _itemId; // return the item back \t\n\n    }\n\n\n    // Function to check if the bid is greater than highest bid\n\tfunction check_bid (uint _itemId, uint _bidAmt) public view returns (bool) {\n\t\tif (_bidAmt > items[_itemId].auction_price) return true;\n\t\telse return false;\n\t}\n\t\n\t\n    // Function to check if the difference is greater to minimum increment value\n\tfunction check_increment (uint _itemId, uint _bidAmt) public view returns (bool) {\n\t\tuint diff;\n\n\t\tdiff = _bidAmt - items[_itemId].auction_price;\n\t\tif (diff >= items[_itemId].min_increment) return true;\n\t\telse return false;\n\t}\n\t\n\n\t// Function to check if person bidding is the highest bidder\n\tfunction check_highest_bidder (uint _itemId, address person_wallet) public view returns (bool) {\n\t\tif (person_wallet == highestBidders[_itemId]) {\n\t\t\treturn false;\n\t\t} else {\n\t\t\treturn true;\n\t\t}\n\t}\n\n}\n",
  "sourcePath": "/home/paarthsachan/DApp/src/contracts/Auction.sol",
  "compiler": {
    "name": "solc",
    "version": "0.5.16+commit.9c3226ce.Emscripten.clang"
  },
  "schemaVersion": "3.4.1",
  "updatedAt": "2021-07-11T14:01:12.102Z",
  "devdoc": {
    "methods": {}
  },
  "userdoc": {
    "methods": {}
  }
}